:100000000C9463000C948B000C948B000C948B006C
:100010000C948B000C948B000C948B000C948B0034
:100020000C948B000C948B000C948B000C94EB0EB6
:100030000C948B000C948B000C948B000C948B0014
:100040000C94490E0C948B000C94B90E0C94930EE6
:100050000C948B000C948B000C948B000C948B00F4
:100060000C948B000C948B000000000024002700EF
:100070002A0000000000250028002B0000000000DE
:1000800023002600290004040404040404040202DA
:100090000202020203030303030301020408102007
:1000A0004080010204081020010204081020000012
:1000B0000008000201000003040700000000000027
:1000C0000000A70F601211241FBECFEFD8E0DEBFE3
:1000D000CDBF11E0A0E0B1E0EEE5F8E202C005908E
:1000E0000D92A832B107D9F722E0A8E2B1E001C031
:1000F0001D92A13AB207E1F710E0C2E6D0E004C0D9
:100100002197FE010E94F712C136D107C9F70E945C
:10011000E1100C9422140C940000833081F028F438
:10012000813099F08230A9F008958730A9F08830A5
:10013000C9F08430B1F4809180008F7D03C080913C
:1001400080008F7780938000089584B58F7784BD79
:10015000089584B58F7DFBCF8091B0008F77809319
:10016000B00008958091B0008F7DF9CFCF93DF93D9
:10017000282F30E0F901E255FF4F8491F901E6564E
:10018000FF4FD491F901EA57FF4FC491CC23A1F05E
:1001900081110E948D00EC2FF0E0EE0FFF1FE4585C
:1001A000FF4FA591B491EC91ED2381E090E009F42B
:1001B00080E0DF91CF91089580E090E0FACF1F9327
:1001C000CF93DF93282F30E0F901E255FF4F849160
:1001D000F901E656FF4FD491F901EA57FF4FC49158
:1001E000CC23A9F0162F81110E948D00EC2FF0E096
:1001F000EE0FFF1FEE58FF4FA591B4918FB7F89403
:10020000EC91111108C0D095DE23DC938FBFDF91F4
:10021000CF911F910895DE2BF8CFCF93DF9390E01D
:10022000FC01E656FF4F24918A579F4FFC018491B1
:100230008823D1F090E0880F991FFC01E859FF4F07
:10024000A591B491FC01EE58FF4FC591D491611175
:100250000EC09FB7F8948C91E22FE0958E238C937B
:100260002881E223E8839FBFDF91CF9108958FB764
:10027000F894EC91E22BEC938FBFF6CF8E3008F020
:100280008E508770806480937C0080917A008064B7
:1002900080937A0080917A0086FDFCCF809178006F
:1002A0009091790008953FB7F894809163019091FF
:1002B0006401A0916501B091660126B5A89B05C0B7
:1002C0002F3F19F00196A11DB11D3FBFBA2FA92FD5
:1002D000982F8827BC01CD01620F711D811D911DD2
:1002E00043E0660F771F881F991F4A95D1F708953D
:1002F0008F929F92AF92BF92CF92DF92EF92FF9236
:100300000E9453014B015C0184E6C82ED12CE12CE4
:10031000F12C0E945301681979098A099B09683EEA
:10032000734081059105A8F321E0C21AD108E108C4
:10033000F10888EE880E83E0981EA11CB11CC11440
:10034000D104E104F10429F7FF90EF90DF90CF9002
:10035000BF90AF909F908F9008950895AF92BF92F5
:10036000CF92DF92EF92FF920F931F93CF93DF9381
:100370006C017B018B01040F151FEB015E01AE18B0
:10038000BF08C017D10759F06991D601ED91FC91D2
:100390000190F081E02DC6010995892B79F7C501FF
:1003A000DF91CF911F910F91FF90EF90DF90CF9051
:1003B000BF90AF900895FC01538D448D252F30E000
:1003C000842F90E0821B930B541710F0CF96089562
:1003D00001970895FC01918D828D981761F0A28D8F
:1003E000AE0FBF2FB11D5D968C91928D9F5F9F7355
:1003F000928F90E008958FEF9FEF0895FC01918D0B
:10040000828D981731F0828DE80FF11D858D90E077
:1004100008958FEF9FEF0895FC01918D228D892F14
:1004200090E0805C9F4F821B91098F7399270895FC
:1004300087E691E00E940C0221E0892B09F420E07C
:10044000822F089580E090E0892B29F00E94180205
:1004500081110C9400000895FC01A48DA80FB92F00
:10046000B11DA35ABF4F2C91848D90E001968F73DC
:100470009927848FA689B7892C93A089B1898C91FB
:10048000837080648C93938D848D981306C002884A
:10049000F389E02D80818F7D80830895EF92FF9214
:1004A0000F931F93CF93DF93EC0181E0888F9B8D97
:1004B0008C8D98131AC0E889F989808185FF15C051
:1004C0009FB7F894EE89FF896083E889F989808174
:1004D0008370806480839FBF81E090E0DF91CF9143
:1004E0001F910F91FF90EF900895F62E0B8D10E065
:1004F0000F5F1F4F0F731127E02E8C8D8E110CC0D4
:100500000FB607FCFACFE889F989808185FFF5CF1E
:10051000CE010E942C02F1CFEB8DEC0FFD2FF11DCF
:10052000E35AFF4FF0829FB7F8940B8FEA89FB895B
:1005300080818062CFCFCF93DF93EC01888D8823B9
:10054000B9F0AA89BB89E889F9898C9185FD03C036
:10055000808186FD0DC00FB607FCF7CF8C9185FF1B
:10056000F2CF808185FFEDCFCE010E942C02E9CF32
:10057000DF91CF910895CF93DF9300D0CDB7DEB751
:10058000DA012C91FB01308139832A83DC018D91C2
:100590009C91DC01ED91FC910284F385E02D22E039
:1005A00030E0AE014F5F5F4F61EF70E009950F9053
:1005B0000F90DF91CF9108956115710531F0FC0125
:1005C00080819181FB01918380830895CF92DF9296
:1005D000EF92FF920F931F93CF93DF93EC01162FAF
:1005E0006A017901E881F9810280F381E02D41E01F
:1005F00060EC0995E881F9810280F381E02D40E00B
:10060000612FCE010995E881F9810280F381E02D07
:10061000DE01A95FBE4F6C9181E0860F8C9340E0B4
:10062000CE0109958601EC0CFD1CE881F981028060
:10063000F381E02DE016F10639F0D8016D918D01BE
:1006400040E0CE010995F1CF41E060ECCE01099583
:100650008A819B81DC01ED91FC910680F781E02D80
:10066000DF91CF911F910F91FF90EF90DF90CF908E
:100670000994BF92CF92DF92EF92FF920F931F9354
:10068000CF93DF93EC01B62EC42ED22EE881F981F0
:100690000280F381E02D41E060EC0995E881F98169
:1006A0000280F381E02D40E06B2DCE010995E881B9
:1006B000F9810280F381E02D40E06C2DCE01099597
:1006C000E881F9810280F381E02D40E06D2DCE01BB
:1006D00009956801E00EF11EE881F9810280F3813D
:1006E000E02DEC14FD0439F0D6016D916D0140E070
:1006F000CE010995F1CF41E060ECCE0109958A81E8
:100700009B81DC01ED91FC910680F781E02DDF916A
:10071000CF911F910F91FF90EF90DF90CF90BF90FE
:100720000994DC0112968D919C91DC01ED91FC9174
:100730000190F081E02D0994CF93DF93DC01ED91DE
:10074000FC910480F581E02D442319F0DF91CF91D5
:100750000994EC01603C21F06B3D59F0CE01F6CFDD
:100760006BED0995E881F9810480F581E02D6CED50
:10077000F5CF6BED0995E881F9810480F581E02DD5
:100780006DEDECCF0F931F93CF93DF93EC01CA5F16
:10079000DE4F2881222321F06C3D49F06D3D09F1A7
:1007A000603C59F16B3D81F481E088833AC0DC0103
:1007B000AB5FBE4FEC9121E02E0F2C93E80FF92F89
:1007C000F11D20EC26831882FC01EB5FFE4F208197
:1007D00031E0320F3083820F911DDC0116966C934D
:1007E00020C0DC01AB5FBE4FEC9121E02E0F2C93BB
:1007F000E80FF92FF11D2BEDE5CF8C010B5F1E4F9C
:10080000D8014C91442351F0BC016A5F7F4FDC0159
:10081000ED91FC910680F781E02D0995F801108299
:100820001882DF91CF911F910F910895DC01ED9116
:10083000FC91309729F00280F381E02D0296099413
:100840000895FC01828D938D30E020E02817390750
:10085000E1F0A785B089A20FB31F4C91641312C0B9
:1008600080A591A52817390718F082A593A50895AA
:10087000220F331F858D968D280F391FF901808136
:10088000918108952F5F3F4FE1CF8585968508952B
:10089000CF93DF93EC01CD3C8CE0D807A0F42AE0A5
:1008A0002C9FC0012D9F900D112402960E94FD12D5
:1008B000FC01C193D193CF012197D7FD07C01182CD
:1008C00010823A96F9CF8FEF9FEFF0CFDF91CF9163
:1008D0000895EF92FF920F931F93CF93DF93EC0154
:1008E0008B0180E190E09F838E8381E088871D8665
:1008F000FB01E184F284C7010E94FD129983888381
:10090000892B61F1F801828193819B838A838481A1
:1009100095819D838C83868197819F838E8380853B
:100920008887FA86E986838594859C878B87858569
:100930008D8790E080E02B853C858217930770F4CB
:10094000E0913E02F0913F02E80FF91F2081E8811B
:10095000F981E80FF91F20830196EDCFDF91CF9148
:100960001F910F91FF90EF900895EF92FF920F93D8
:100970001F93CF93DF930097C1F1EC01FC013297F5
:10098000808191812AE0289F8001299F100D1124E8
:100990000C0F1D1F7801CE15DF0539F08AE0E81A2B
:1009A000F108C7010E941604F6CFC8018C1B9D0BED
:1009B000969587954DEC5CE4849F9001859F300D62
:1009C000949F300D11243F7746EF4203C001439FAF
:1009D000900D11240297800F911FDF91CF911F91ED
:1009E0000F91FF90EF900C949913DF91CF911F918D
:1009F0000F91FF90EF9008952F923F924F925F9248
:100A00006F927F928F929F92AF92BF92CF92DF921E
:100A1000EF92FF920F931F93CF93DF938C016B01A3
:100A2000FC01C481D58181859285C617D707B8F4AA
:100A3000C817D907A9F480E0DF91CF911F910F91DA
:100A4000FF90EF90DF90CF90BF90AF909F908F90EE
:100A50007F906F905F904F903F902F900895EB01A3
:100A6000F8012085211105C08C179D0738F081E021
:100A7000E3CF6E018C179D0708F46C011E012097CF
:100A800019F480E1282E312CC1010E9448043C0158
:100A9000009789F27C01512C412CF80180809180D3
:100AA000C414D504E9F05701A618B708C7010E947D
:100AB0001604E114F10469F0F401EA0DFB1D8191C3
:100AC0009191D7018D939D9388E001900D928A9525
:100AD000E1F7FFEF4F1A5F0A8AE0E80EF11CDDCF65
:100AE000C4010E94B504F8017182608221863286B9
:100AF00083859485C817D90708F0B9CFD487C387F1
:100B0000B6CF0F931F93CF93DF938C0160918F0229
:100B100070919002809191029091920286179707AE
:100B2000F8F420919102309192024AE0429FC00174
:100B3000439F900D1124C0918602D0918702C80F67
:100B4000D91FCE010E9416042097E9F480919102EA
:100B500090919202019690939202809391020EC01E
:100B600080918C0290918D02009741F0680F791F5F
:100B700086E892E00E94FC048111D3CFDF91CF91EF
:100B80001F910F910895F80181919191DE018D934C
:100B90009D9388E001900D928A95E1F7D7CF0F934E
:100BA0001F93CF93DF93EC018B0169857A8506173C
:100BB000170738F08E819F81680F791FCE010E9440
:100BC000FC0489859A852B853C850217130740F024
:100BD0008017910740F098012F5F3F4F3C872B878C
:100BE0000817190738F0CE010D96DF91CF911F91AC
:100BF0000F9108958AE0809F9001819F300D11240C
:100C000088819981820F931FF0CFAF92BF92CF92CC
:100C1000DF92EF92FF920F931F93CF93DF938C019C
:100C20007B01FC01C481D58181859285C617D707D8
:100C300078F4C817D90769F480E0DF91CF911F914C
:100C40000F91FF90EF90DF90CF90BF90AF900895FD
:100C5000EB01F8012085211105C08C179D0738F0A4
:100C600081E0EBCF7E018C179D0708F47C01209773
:100C700021F16E018FEF9FEFC115F0E4DF0718F44B
:100C8000C601880F991F0E94FD125C010097A1F216
:100C9000DC01F8018081918130E020E0E216F3066A
:100CA00081F0F901EE0FFF1FE80FF91F408151811C
:100CB0004D935D932F5F3F4FF1CF60E1C62ED12C56
:100CC000DFCF009711F00E949913F801B182A08242
:100CD000D286C18683859485C817D90708F6D4873C
:100CE000C387BECF0F931F93CF93DF93EC018B018C
:100CF00069857A850617170738F08E819F81680FFE
:100D0000791FCE010E94050689859A852B853C8531
:100D10000217130740F08017910740F098012F5FEA
:100D20003F4F3C872B870817190738F0CE010D96E7
:100D3000DF91CF911F910F910895000F111F8881AE
:100D40009981800F911FF4CF8F929F92AF92BF92A3
:100D5000CF92DF92EF92FF920F931F93CF93DF9387
:100D6000EC017B0189859A856817790760F0CE8050
:100D7000DF80C80ED91E0C811D810C151D0528F5BC
:100D80008017910719F589859A852B853C85E21690
:100D9000F30640F08E159F0548F097012F5F3F4FF7
:100DA0003C872B87E816F90608F458C0CE010D964B
:100DB000DF91CF911F910F91FF90EF90DF90CF9037
:100DC000BF90AF909F908F90089586012885211144
:100DD00027C080179107B8F60115110539F15801A0
:100DE000011580E4180730F5C501880F991F0E948E
:100DF000FD124C01009739F2DC018881998130E0C5
:100E000020E0C216D306C9F0F901EE0FFF1FE80F6C
:100E1000F91F408151814D935D932F5F3F4FF1CF7B
:100E20006C0108171907C0F66801D6CF60E1A62E3D
:100E3000B12CDACF8FEF9FEFDACF009711F00E943D
:100E4000991399828882BA86A9868B859C85081712
:100E5000190708F098CF1C870B8795CFEE0CFF1C65
:100E6000888199818E0D9F1DA3CFAF92BF92CF92A3
:100E7000DF92EF92FF920F931F93CF93DF938C013A
:100E80007B01DC011496CD91DC91159719968D911B
:100E90009C91C617D70778F4C817D90769F480E082
:100EA000DF91CF911F910F91FF90EF90DF90CF9046
:100EB000BF90AF900895EB01F8012085211105C086
:100EC0008C179D0738F081E0EBCF7E018C179D07D2
:100ED00008F47C016E01209719F480E1C82ED12C12
:100EE000C6010E94FD125C010097C9F2FC01D80105
:100EF0008D919C9130E020E0E216F30641F0DC0198
:100F0000A20FB31F4C9141932F5F3F4FF5CF009736
:100F100011F00E949913F801B182A082C186D28695
:100F200083859485C817D90770F6D487C387CBCF3C
:100F3000CF93FC0183859485C0E06817790750F54D
:100F40008385948501976817790778F4808191816A
:100F50009B012F5F3F4FDC01A20FB31F4C91680F25
:100F6000791FDB014C93B901EBCF94878387C08550
:100F7000CC2399F04185528526813781BA01621BC5
:100F8000730B8617970730F42417350718F4CF0131
:100F90000E9435078C2FCF910895C1E0FBCF0F93AE
:100FA0001F93CF93DF93EC018B0169857A858B8545
:100FB0009C8586179707A8F4F8018081E881F9815C
:100FC0002B853C85E20FF31F80832B853C85C9016F
:100FD00001969C878B87C901DF91CF911F910F915B
:100FE00008958E819F81009719F48FEF9FEFF4CFC2
:100FF000680F791FCE010E9435078111DDCFF5CF33
:101000000F931F93CF93DF93EC018B0169857A8552
:101010000617170738F08E819F81680F791FCE0160
:101020000E94350789859A852B853C850217130711
:1010300040F08017910740F098012F5F3F4F3C87A9
:101040002B870817190738F0CE010D96DF91CF9145
:101050001F910F91089588819981800F911FF6CF7C
:10106000CF92DF92FF920F931F93CF93DF938C0168
:10107000F62ED0E0C0E06C018FE0C80ED11CF80164
:10108000828D938DC817D90798F4BE01C6010E94BE
:101090000008FC0180818F1109C0CE01DF91CF9142
:1010A0001F910F91FF90DF90CF9008952196E7CF89
:1010B0008FEF9FEFF3CFCF92DF92EF92FF920F93DC
:1010C0001F93CF93DF931F92CDB7DEB78C01698357
:1010D000F12CE12C6C018FE0C80ED11CF801828D3F
:1010E000938DE816F90698F4B701C6010E9400082E
:1010F000FC0190818981981306C0B701C8014D9603
:101100000E94A4060EC0FFEFEF1AFF0AE7CFBE0150
:101110006F5F7F4FC6010E94CF0797FF0CC0C801C9
:101120000D960F90DF91CF911F910F91FF90EF904F
:10113000DF90CF900895F801208131812F5F3F4FDC
:1011400031832083BC01DACFCF92DF92EF92FF92FE
:101150000F931F93CF93DF938C01D62ED0E0C0E086
:101160007C018FE0E80EF11CD8015A968D919C917C
:10117000C817D90708F052C0BE01C7010E94000875
:10118000FC0180818D1148C0D80198968D919C9169
:10119000C817D90798F5AE01440F551FBE01019736
:1011A000FA0132966817790790F4D8015D962D916F
:1011B0003C916F5F7F4FD901AE0FBF1FCD90DC9088
:1011C000240F351FD901CD92DC92AF01E9CFF80190
:1011D00091A780A725A1222389F046A157A123A189
:1011E00034A1BA01621B730B8617970738F42417D2
:1011F000350720F4C8014D960E940506BE01C701BF
:101200000E949807CE01DF91CF911F910F91FF901F
:10121000EF90DF90CF9008952196A6CF8FEF9FEFAC
:10122000F2CFCF92DF92EF92FF920F931F93CF9363
:10123000DF931F92CDB7DEB78C016983F12CE12CCF
:101240006C018FE0C80ED11CF801828D938DE816D9
:10125000F90698F4B701C6010E940008FC019081CC
:101260008981981306C0B701C8014D960E94720685
:101270000EC0FFEFEF1AFF0AE7CFBE016F5F7F4F8F
:10128000C6010E94CF0797FF0CC0C8010D960F90B2
:10129000DF91CF911F910F91FF90EF90DF90CF9052
:1012A0000895F801208131812F5F3F4F31832083E2
:1012B000BC01DACFCF92DF92EF92FF920F931F9390
:1012C000CF93DF931F92CDB7DEB78C016983F12CEA
:1012D000E12C6C018EE0C80ED11CF801818D928D3D
:1012E000E816F90698F4B701C6010E940008FC014F
:1012F00090818981981306C0B701C8014C960E945D
:1013000000080EC0FFEFEF1AFF0AE7CFBE016F5FC4
:101310007F4FC6010E94CF0797FF0CC0C8010D96F2
:101320000F90DF91CF911F910F91FF90EF90DF9081
:10133000CF900895F801208131812F5F3F4F318395
:101340002083BC01DACFFC0180819181009711F0EC
:101350000C94991308952F923F925F926F927F920F
:101360008F929F92AF92BF92CF92DF92EF92FF92B5
:101370000F931F93CF93DF93CDB7DEB729970FB6A7
:10138000F894DEBF0FBECDBF6C017B01DB016C9119
:1013900011965C90673008F06DC4E62FF0E0ED52D6
:1013A000F64F0C94F712DA09100AF10B5F0C9E0C41
:1013B0003D0D790DDC01ED91FC910084F185E02D6E
:1013C000423011F1F12CE12C10E000E023E030E09C
:1013D000452D60E0C601099529960FB6F894DEBF49
:1013E0000FBECDBFDF91CF911F910F91FF90EF9076
:1013F000DF90CF90BF90AF909F908F907F906F9035
:101400005F903F902F90089519821A824B8333E0AA
:10141000E32EF12C8E010F5F1F4F30E020E0D8CF7C
:10142000EDB7FEB7F987E887443079F0DC01ED913C
:10143000FC910084F185E02DF12CE12C10E000E01E
:1014400023E030E0452D61E0C5CFF70112818381B3
:10145000282E312CD6011496ED90FC90823009F4A0
:10146000F7C078F4882309F437C1813009F4E0C06B
:10147000612FC7010E945B08DC012D923C9280E045
:10148000BEC0843009F4F1C008F4E7C0853081F7AC
:101490005701F6E5AF0EB11C712C612C9701205954
:1014A0003F4F3F832E8345013FE0830E911CAE8169
:1014B000BF818D919C916816790650F4B301C401E7
:1014C0000E940008FC0180811813DCC077FEDEC09A
:1014D00083E090E00E94FD124C0180914C018C3021
:1014E00008F0F6C091E0980F90934C01D4018C93D2
:1014F00090E0FC01EE0FFF1FE80FF91FE85DFE4FC3
:101500008CED95E092838183612FC5010E941109C2
:10151000DC018D929C92612FC5010E941109FC0192
:1015200080809180D4018C918C3008F055C061E0AE
:10153000812F0E940D01F4018081282F30E0F901F4
:10154000EE0FFF1FE20FF31FE85DFE4F9081907CCE
:10155000212F2F73922B9083D40111961C921197F7
:1015600012961C922CE0622F0E94EB12829FB00117
:10157000112430E020E0AB01420F531FFA01EE0FBF
:10158000FF1FE40FF51FE85DFE4F908196FD16C02A
:101590002F5F3F4F2C30310571F781110FC0109232
:1015A000800082E080938100109285001092840078
:1015B000B19A80916F00826080936F00D401EC91AA
:1015C0008E2F90E0FC01EE0FFF1FE80FF91FE85D82
:1015D000FE4F808180648083F40180818F3F09F019
:1015E00047CF612FC5010E941109DC018D919C91AB
:1015F0000E949913612FC5010E94A40885E0898388
:10160000D601ED91FC910084F185E02DEE24E39468
:10161000F12C8E010F5F1F4F30E020E0452D61E07F
:10162000C60109950FB6F894DEBF0FBECDBFD4CE6C
:1016300060E0812F0E940D01812F0E94B600082FCB
:10164000612FC7018C960E945A09FC01008310CFBC
:1016500061E0812F0E940D010BCF60E0812F0E947D
:101660000D01812F0E943E0103CF61E0812F0E9476
:101670000D0161E0812F0E940D0160E0812F0E9429
:10168000DF00F6CEFFEF6F1A7F0A11CF612FC50181
:101690000E941109DC01ED91FC91E0818E2F90E018
:1016A000FC01EE0FFF1FE80FF91FE85DFE4F808180
:1016B0008F7B8083612FC5010E941109FC0180810D
:1016C00091810E949913612FC5010E94A40800CF47
:1016D0008FEFF401808318CFB12CA12CF701E059D2
:1016E000FF4FFF83EE834701F6E58F0E911C340117
:1016F0002FE0620E711CAE81BF818D919C91A81666
:10170000B90650F4B501C3010E940008FC018081B4
:1017100018131EC0B7FE20C0B12CA12C3701F5E470
:101720006F0E711C47012AE3820E911CD3018D912B
:101730009C91A816B90650F4B501C4010E94000896
:10174000FC01808118132AC0B7FE2CC060E081CF55
:10175000FFEFAF1ABF0ACFCF612FC4010E9411095A
:10176000DC01ED91FC91E0818E2F90E0FC01EE0F09
:10177000FF1FE80FF91FE85DFE4F80818F7B80839C
:10178000612FC4010E941109FC01808191810E9496
:101790009913612FC4010E94A408BECFFFEFAF1AB6
:1017A000BF0AC4CFB12CA12CD3018D919C91A81656
:1017B000B90660F6B501C4010E940008FC018081F1
:1017C00018130BC0B501C701885B9F4F0E94980793
:1017D000B501C4010E949807B9CFFFEFAF1ABF0A45
:1017E000E3CF443079F0DC01ED91FC910084F18588
:1017F000E02DF12CE12C10E000E023E030E0452D5D
:1018000062E0E8CDF70112819380DC011496ED903F
:10181000FC90612FC7010E9430080196C9F1612F29
:10182000C7010E945B08FC0180819181029709F049
:1018300042C001E0911001C000E0602F812F0E94A2
:10184000DF00912C812C3701FDE86F0E711C22E81E
:10185000E20EF11CD3018D919C918816990668F5D2
:10186000B401C7010E94CF051C830983DC01ED91FF
:10187000FC910480F581E02DAE014F5F5F4FBE010A
:101880006C5F7F4F02960995BFEF8B1A9B0AE2CFE0
:1018900081E08D83D601ED91FC910084F185E02DEE
:1018A000EE24E394F12C8E010B5F1F4F30E020E01B
:1018B000452D62E0B5CE83E0ECCF80E0EACF433047
:1018C00079F0DC01ED91FC910084F185E02DF12CA3
:1018D000E12C10E000E023E030E0452D63E07ACD1C
:1018E000F7011281612FDC0114968D919C910E9469
:1018F00021040097F1F001970297F0F4812F0E94E4
:10190000B60021E0892B09F420E080E089832A8356
:10191000D601ED91FC910084F185E02D02E0E02EEE
:10192000F12C8E010F5F1F4F30E020E0452D63E06A
:1019300077CE81E020E0EACF82E0FCCF443079F03E
:10194000DC01ED91FC910084F185E02DF12CE12C7E
:1019500010E000E023E030E0452D64E03BCDF701EE
:101960001281DC0114968D909C90612FC4010E941D
:101970002104009799F481E08983D601ED91FC91CF
:101980000084F185E02DEE24E394F12C8E010F5FAD
:101990001F4F30E020E0452D64E042CE049711F067
:1019A00083E0EACFF7010381612FC4010E94300870
:1019B000019609F3612FC4010E945B08DC018D913F
:1019C0009C91049769F7E02EF12C61E0812F0E9431
:1019D0000D01E114F10429F460E0812F0E94DF0081
:1019E0002BC0BFEFEB16F10411F461E0F6CFE12F4D
:1019F000F0E0E255FF4FE491E33029F148F4E130A3
:101A0000B9F0E230D9F0E0E8EE16F10474F7E4CF73
:101A1000E73019F1E83049F1E430A9F7809180000E
:101A2000806280938000F0928B00E0928A0004C074
:101A300084B5806884BD07BD80E09ECF84B5806298
:101A400084BD08BDF9CF80918000806880938000BC
:101A5000F0928900E0928800EFCF8091B00080681A
:101A60008093B0000093B300E7CF8091B000806214
:101A70008093B0000093B400DFCF433079F0DC01F5
:101A8000ED91FC910084F185E02DF12CE12C10E02A
:101A900000E023E030E0452D65E09CCCF7011281A9
:101AA000612FDC0114968D919C910E942104009776
:101AB000E1F0039722E00297C8F4812F0E943E01D3
:101AC00020E029839A838B83D601ED91FC910084D9
:101AD000F185E02DB3E0EB2EF12C8E010F5F1F4F4F
:101AE00030E020E0452D65E09BCD21E080E090E0F6
:101AF000E8CF443079F0DC01ED91FC910084F18570
:101B0000E02DF12CE12C10E000E023E030E0452D49
:101B100066E060CCF7011281DC0114968D909C90F8
:101B2000612FC4010E942104009799F481E0898308
:101B3000D601ED91FC910084F185E02DEE24E39433
:101B4000F12C8E010F5F1F4F30E020E0452D66E045
:101B500067CD059709F08AC0F701038184E0053B52
:101B600030F7612FC4010E94300897FDDFCF612F4D
:101B7000C4010E945B08DC018D919C91059709F0DE
:101B800077C0B6E58B0E911C612FC4010E9411092C
:101B9000DC01ED91FC91E0818E2F90E0FC01EE0FD5
:101BA000FF1FE80FF91FE85DFE4F808186FFBECF63
:101BB000612FC4010E941109DC01ED91FC9110819B
:101BC0001C3008F051C0828148E5842E42E0942EFA
:101BD000881A910887FD93941401220C331C220C5F
:101BE000331C818168E8E62EF12CE81AF10887FDA4
:101BF000F394EE0CFF1CEE0CFF1C37010F2C000CB5
:101C0000880899089101032C000C440B550B2619E8
:101C1000370948095909A02FB0E00E94AF1224EB00
:101C200030E040E050E00E949012BA01A901460D58
:101C3000571D681D791D4E155F052CF07101421569
:101C400053050CF47A012FB7F894812F90E0B2E09D
:101C5000EB1AF108FC01EE0FFF1FE80FF91FE85D1A
:101C6000FE4FF282E1822FBF80E061CF82E05FCF42
:101C700083E05DCFDC01ED91FC910084F185E02DE6
:101C8000F12CE12C10E000E022E030E0452D099538
:101C9000A3CB1F920F920FB60F9211242F933F9355
:101CA0008F939F93AF93BF9380915F019091600159
:101CB000A0916101B091620130915E0126E0230F95
:101CC0002D3758F50296A11DB11D20935E0180931A
:101CD0005F0190936001A0936101B09362018091D4
:101CE000630190916401A0916501B0916601019634
:101CF000A11DB11D8093630190936401A0936501C0
:101D0000B0936601BF91AF919F918F913F912F91B9
:101D10000F900FBE0F901F90189529E8230F039680
:101D2000A11DB11DD2CF1F920F920FB60F92112499
:101D30002F933F934F935F936F937F938F939F93D3
:101D4000AF93BF93EF93FF9387E691E00E942C023D
:101D5000FF91EF91BF91AF919F918F917F916F9183
:101D60005F914F913F912F910F900FBE0F901F9059
:101D700018951F920F920FB60F9211242F938F93E5
:101D80009F93EF93FF93E0917701F0917801808129
:101D9000E0917D01F0917E0182FD1BC090818091D8
:101DA00080018F5F8F7320918101821741F0E09154
:101DB0008001F0E0E959FE4F958F80938001FF91FB
:101DC000EF919F918F912F910F900FBE0F901F90C9
:101DD00018958081F4CF1F920F920FB60F921124A5
:101DE0002F933F934F935F936F937F938F939F9323
:101DF000AF93BF93CF93DF93EF93FF9380914D0108
:101E0000C0914C01D0E087FF24C010928500109251
:101E1000840080914D018F5F80934D0180914D0131
:101E2000082E000C990B8C179D0724F480914D010E
:101E30008C30C4F1809184009091850004968032AA
:101E40009E4408F47AC080918400909185000496A5
:101E500076C080914D01082E000C990B8C179D07C0
:101E6000C4F6E0914D018E2FEE0F990BFC01EE0FA1
:101E7000FF1FE80FF91FE85DFE4F808186FFC9CF85
:101E8000E0914D018E2FEE0F990BFC01EE0FFF1F1D
:101E9000E80FF91FE85DFE4F808160E08F730E94BC
:101EA000DF00B7CF2091840030918500E0914D0193
:101EB0008E2FEE0F990BFC01EE0FFF1FE80FF91F9D
:101EC000E85DFE4F81819281820F931F909389007C
:101ED00080938800E0914D018E2FEE0F990BFC014D
:101EE000EE0FFF1FE80FF91FE85DFE4F808186FFB0
:101EF00011C0E0914D018E2FEE0F990BFC01EE0FFA
:101F0000FF1FE80FF91FE85DFE4F808161E08F73CE
:101F10000E94DF00FF91EF91DF91CF91BF91AF91D0
:101F20009F918F917F916F915F914F913F912F91F1
:101F30000F900FBE0F901F90189580E29EE4909333
:101F40008900809388008FEF80934D01E3CFCF927B
:101F5000DF92FF920F931F93CF93DF93E7E6F1E0B9
:101F60001382128288EE93E0A0E0B0E08483958330
:101F7000A683B7838AE191E09183808385EC90E02A
:101F80009587848784EC90E09787868780EC90E043
:101F9000918B808B81EC90E0938B828B82EC90E034
:101FA000958B848B86EC90E0978B868B118E128EAE
:101FB000138E148EC4E0D2E000E110E01F830E8384
:101FC000CC24CA94DC2CD986C8861B870A87FF24B8
:101FD000F394FC861E861D861A8B098BDC8ACB8ABD
:101FE0001E8B0D8BFF8A1C8E1B8E1A8E198F088FED
:101FF00080E190E00E94FD12988B8F8718A30F8FCD
:10200000DAA2C9A21CA30BA3FDA21BA61AA619A69D
:1020100018A61FA30EA380E290E00E94FD129E8FDF
:102020008D8F198218821D830C831BAB0AABDDAA2E
:10203000CCAA1FAB0EABF8AE19AE1DAF0CAFDFAE26
:10204000CEAE1093450200934402F09246021092E5
:102050004B0210924A0210924902109348020093D8
:10206000470280E190E00E94FD129BAF8AAF10937F
:102070004F0200934E02D0925102C0925002109330
:10208000530200935202F09254021092590210929D
:10209000580210925702109356020093550280E1A5
:1020A00090E00E94FD1290934D0280934C021DA679
:1020B0001CA619AB08AB1093610200936002D0928A
:1020C0006302C09262021093650200936402F09270
:1020D0006602109268021092670210936C020093DD
:1020E0006B02D0926E02C0926D0210937002009348
:1020F0006F02F092710210927602109275021092A5
:102100007402109373020093720280E190E00E94C7
:10211000FD1290936A028093690210937A020093F1
:102120007902D0927C02C0927B0210937E020093CF
:102130007D02F0927F02109285021092840210922A
:10214000830210928202109381020093800280E247
:1021500090E00E94FD129093780280937702109293
:102160005B0210925A0210935F0200935E0210937A
:10217000890200938802D0928B02C0928A02109347
:102180008D0200938C02F0928E02109294021092B3
:102190009302109292021092910210939002009377
:1021A0008F0280E190E00E94480490938702809320
:1021B0008602DF91CF911F910F91FF90DF90CF901A
:1021C0000895CF93DF93CDB7DEB760970FB6F8943D
:1021D000DEBF0FBECDBF789484B5826084BD84B568
:1021E000816084BD85B5826085BD85B5816085BD12
:1021F00080916E00816080936E00109281008091CA
:102200008100826080938100809181008160809351
:102210008100809180008160809380008091B10076
:1022200084608093B1008091B00081608093B000A1
:1022300080917A00846080937A0080917A00826035
:1022400080937A0080917A008E7F80937A008091CB
:102250007A00806880937A001092C10088E091E053
:102260000E94FD128C018AE091E0D80111969C93A6
:102270008E9387E691E013969C938E93129784E059
:1022800092E015969C938E931497F801EB5FFE4FA6
:102290001082319610823196108280915401811102
:1022A00015C08CED92E090934F0180934E018DEA22
:1022B00091E090935101809350018BEB92E09093C9
:1022C00053018093520181E0809354018EE491E0A8
:1022D0009A8389831C830B83CE0101960E9481051A
:1022E000CE0101960E94160410935D0100935C01DB
:1022F00061E08DE00E940D0161E08DE00E94DF0051
:102300000E94780160E08DE00E94DF000E94780169
:1023100061E08DE00E94DF000E94780160E08DE0C6
:102320000E94DF0060E08DE00E940D01D80112964E
:10233000ED91FC91A089B18982E08C93A485B5854B
:102340001C92A685B78588E08C93108EA489B589E8
:1023500086E08C93A289B3898C9180618C93A28949
:10236000B3898C9188608C93A289B3898C918068A1
:102370008C930288F389E02D80818F7D80830E9479
:10238000780130E020E050E040E060EF70E0C8010C
:102390000E94E60280E0A82E80E0B82E6EE372E094
:1023A000CE0101960E946904F12CE12C8C859D855B
:1023B000E816F90608F04FC0B701CE0101960E9459
:1023C0000008FC011081612F84E092E00E945B080C
:1023D000DC018D919C910197D1F5812F0E94B6006F
:1023E000082F612F80E392E00E945A09FC0180814E
:1023F000081769F1612F80E392E00E945A09DC011D
:102400000C93D12CC12C8091910290919202C8160C
:10241000D906E8F4B60186E892E00E94CF05188B51
:1024200021E0013009F020E02F87DC01ED91FC91E3
:102430000480F581E02DAE01415F5F4FBE01605F1A
:102440007F4F02960995BFEFCB1ADB0ADCCFEFEF87
:10245000EE1AFE0AABCFCE0101960E94A3090091AD
:102460005C0110915D01D80112968D919C91DC0167
:10247000ED91FC910084F185E02D0995892BA1F067
:10248000F80182819381DC01ED91FC910284F38556
:10249000E02D0995D801ED91FC910190F081E02D9E
:1024A000682FC8010995DFCFA114B10409F476CFD4
:1024B0000E941802882309F471CF0E9400006ECF99
:1024C0008091860290918702009731F00E94B504B6
:1024D000109287021092860283E992E00E9416040D
:1024E0008091770290917802009711F00E949913E1
:1024F00089E692E00E94A3098CE492E00E94A3097D
:102500008EE392E00E94A309809121029091220221
:10251000009711F00E94991383E192E00C94A309B3
:10252000052E97FB1EF400940E94A71257FD07D0BA
:102530000E94BA1207FC03D04EF40C94A7125095D7
:102540004095309521953F4F4F4F5F4F089590959F
:102550008095709561957F4F8F4F9F4F08950E9492
:10256000DC12A59F900DB49F900DA49F800D911D2E
:1025700011240895A1E21A2EAA1BBB1BFD010DC058
:10258000AA1FBB1FEE1FFF1FA217B307E407F50723
:1025900020F0A21BB30BE40BF50B661F771F881FFF
:1025A000991F1A9469F760957095809590959B0195
:1025B000AC01BD01CF010895A29FB001B39FC0013E
:1025C000A39F700D811D1124911DB29F700D811D5F
:1025D0001124911D0895991B79E004C0991F961745
:1025E00008F0961B881F7A95C9F780950895EE0F1D
:1025F000FF1F0590F491E02D09940F931F93CF9343
:10260000DF938230910510F482E090E0E0919F0228
:10261000F091A00230E020E0B0E0A0E0309799F423
:102620002115310509F44AC0281B390B2430310526
:10263000D8F58A819B816115710589F1FB0193832E
:102640008283FE0111C040815181028113814817AC
:102650005907E0F04817590799F4109761F012965E
:102660000C93129713961C933296CF01DF91CF9162
:102670001F910F91089500939F021093A002F4CF31
:102680002115310551F04217530738F0A901DB013C
:102690009A01BD01DF01F801C1CFEF01F9CF90939D
:1026A000A00280939F02CDCFFE01E20FF31F819322
:1026B00091932250310939832883D7CF20919D02ED
:1026C00030919E02232B41F42091020130910301AD
:1026D00030939E0220939D022091000130910101D0
:1026E0002115310541F42DB73EB7409104015091B9
:1026F0000501241B350BE0919D02F0919E02E2172B
:10270000F307A0F42E1B3F0B2817390778F0AC0114
:102710004E5F5F4F2417350748F04E0F5F1F5093F1
:102720009E0240939D02819391939FCFF0E0E0E061
:102730009CCFCF93DF930097E9F0FC01329713828F
:102740001282A0919F02B091A002ED0130E020E042
:102750001097A1F420813181820F931F20919D0257
:1027600030919E022817390709F061C0F0939E024C
:10277000E0939D02DF91CF910895EA01CE17DF0724
:10278000E8F54A815B819E0141155105B1F7E901E8
:10279000FB83EA8349915991C40FD51FEC17FD07BC
:1027A00061F4808191810296840F951FE9019983DC
:1027B0008883828193819B838A83F0E0E0E0129694
:1027C0008D919C9113970097B9F52D913C9111979C
:1027D000CD010296820F931F20919D0230919E029F
:1027E0002817390739F6309751F51092A002109248
:1027F0009F02B0939E02A0939D02BCCFD383C2835D
:1028000040815181840F951FC817D90761F44E5F2D
:102810005F4F88819981480F591F518340838A8176
:102820009B81938382832115310509F0B0CFF0930A
:10283000A002E0939F029ECFFD01DC01C0CF138276
:102840001282D7CF10E0C2E6D0E004C0FE010E94A1
:0E285000F7122196C336D107C9F7F894FFCFCF
:10285E000000A102800000000000C2039C0391034F
:10286E00AB093903E602000000004E02AE01DB01A7
:08287E009B020C02EA01FE01BD
:00000001FF
